{
  "address": "0x0B7ff516F29a5a40e8d363Bb35dE0F2311B50Ac7",
  "abi": [
    {
      "inputs": [],
      "name": "complete",
      "outputs": [],
      "stateMutability": "payable",
      "type": "function"
    },
    {
      "inputs": [],
      "name": "completed",
      "outputs": [
        {
          "internalType": "bool",
          "name": "",
          "type": "bool"
        }
      ],
      "stateMutability": "view",
      "type": "function"
    },
    {
      "inputs": [],
      "name": "getCompleted",
      "outputs": [
        {
          "internalType": "bool",
          "name": "",
          "type": "bool"
        }
      ],
      "stateMutability": "view",
      "type": "function"
    }
  ],
  "transactionHash": "0x871ef09a4535e45a905c220a35b156eab31f1d82842f598653518102c39e9684",
  "args": [],
  "numDeployments": 1,
  "solcInputHash": "375c47fbc7c9cdb0ddeba87aff1b6560",
  "bytecode": "0x608060405234801561001057600080fd5b5060bd8061001f6000396000f3fe60806040526004361060305760003560e01c8063522e11771460355780635b54f9821460485780639d9a7fe914606f575b600080fd5b60466000805460ff19166001179055565b005b348015605357600080fd5b5060005460ff165b604051901515815260200160405180910390f35b348015607a57600080fd5b50600054605b9060ff168156fea2646970667358221220c7b703da3c6649b2e0ee567fc04ae0270c044b8871da5950f62cb664f5be28af64736f6c63430008140033",
  "devdoc": {
    "kind": "dev",
    "methods": {},
    "version": 1
  },
  "userdoc": {
    "kind": "user",
    "methods": {},
    "version": 1
  },
  "storageLayout": {
    "storage": [
      {
        "astId": 3,
        "contract": "contracts/ExampleExternalContract.sol:ExampleExternalContract",
        "label": "completed",
        "offset": 0,
        "slot": "0",
        "type": "t_bool"
      }
    ],
    "types": {
      "t_bool": {
        "encoding": "inplace",
        "label": "bool",
        "numberOfBytes": "1"
      }
    }
  }
}