{
  "address": "0x17De64B52b29Fbb8326f7417DeA00E2d33285e96",
  "abi": [
    {
      "inputs": [
        {
          "internalType": "address",
          "name": "exampleExternalContractAddress",
          "type": "address"
        }
      ],
      "stateMutability": "nonpayable",
      "type": "constructor"
    },
    {
      "anonymous": false,
      "inputs": [
        {
          "indexed": true,
          "internalType": "address",
          "name": "sender",
          "type": "address"
        },
        {
          "indexed": false,
          "internalType": "uint256",
          "name": "amount",
          "type": "uint256"
        }
      ],
      "name": "Stake",
      "type": "event"
    },
    {
      "inputs": [
        {
          "internalType": "address",
          "name": "",
          "type": "address"
        }
      ],
      "name": "balances",
      "outputs": [
        {
          "internalType": "uint256",
          "name": "",
          "type": "uint256"
        }
      ],
      "stateMutability": "view",
      "type": "function"
    },
    {
      "inputs": [],
      "name": "deadline",
      "outputs": [
        {
          "internalType": "uint256",
          "name": "",
          "type": "uint256"
        }
      ],
      "stateMutability": "view",
      "type": "function"
    },
    {
      "inputs": [],
      "name": "exampleExternalContract",
      "outputs": [
        {
          "internalType": "contract ExampleExternalContract",
          "name": "",
          "type": "address"
        }
      ],
      "stateMutability": "view",
      "type": "function"
    },
    {
      "inputs": [],
      "name": "execute",
      "outputs": [],
      "stateMutability": "nonpayable",
      "type": "function"
    },
    {
      "inputs": [],
      "name": "executed",
      "outputs": [
        {
          "internalType": "bool",
          "name": "",
          "type": "bool"
        }
      ],
      "stateMutability": "view",
      "type": "function"
    },
    {
      "inputs": [],
      "name": "getBalance",
      "outputs": [
        {
          "internalType": "uint256",
          "name": "",
          "type": "uint256"
        }
      ],
      "stateMutability": "view",
      "type": "function"
    },
    {
      "inputs": [],
      "name": "openForWithdraw",
      "outputs": [
        {
          "internalType": "bool",
          "name": "",
          "type": "bool"
        }
      ],
      "stateMutability": "view",
      "type": "function"
    },
    {
      "inputs": [],
      "name": "stake",
      "outputs": [],
      "stateMutability": "payable",
      "type": "function"
    },
    {
      "inputs": [],
      "name": "threshold",
      "outputs": [
        {
          "internalType": "uint256",
          "name": "",
          "type": "uint256"
        }
      ],
      "stateMutability": "view",
      "type": "function"
    },
    {
      "inputs": [],
      "name": "timeLeft",
      "outputs": [
        {
          "internalType": "uint256",
          "name": "",
          "type": "uint256"
        }
      ],
      "stateMutability": "view",
      "type": "function"
    },
    {
      "inputs": [],
      "name": "withdraw",
      "outputs": [],
      "stateMutability": "nonpayable",
      "type": "function"
    },
    {
      "stateMutability": "payable",
      "type": "receive"
    }
  ],
  "transactionHash": "0xf0ef4e3727bcddd6b8a43d0a6d778a5bcf001a49796c115c1d02c08a3447130a",
  "args": [
    "0x0B7ff516F29a5a40e8d363Bb35dE0F2311B50Ac7"
  ],
  "numDeployments": 1,
  "solcInputHash": "72bd3cb646bfe9e5f5a7112aca8504fe",
  "bytecode": "0x6080604052610011426203f480610064565b60035534801561002057600080fd5b5060405161069238038061069283398101604081905261003f9161008b565b600080546001600160a01b0319166001600160a01b03929092169190911790556100bb565b8082018082111561008557634e487b7160e01b600052601160045260246000fd5b92915050565b60006020828403121561009d57600080fd5b81516001600160a01b03811681146100b457600080fd5b9392505050565b6105c8806100ca6000396000f3fe6080604052600436106100a05760003560e01c80633a4b66f1116100645780633a4b66f1146101585780633ccfd60b1461016057806342cde4e81461017557806361461954146101915780639876a643146101a65780639f75f227146101c557600080fd5b806312065fe0146100b45780631300a6d1146100d657806327e235e3146100eb57806329dcb0cf1461011857806331a38c891461012e57600080fd5b366100af576100ad6101fd565b005b600080fd5b3480156100c057600080fd5b50475b6040519081526020015b60405180910390f35b3480156100e257600080fd5b506100c3610284565b3480156100f757600080fd5b506100c36101063660046104dd565b60016020526000908152604090205481565b34801561012457600080fd5b506100c360035481565b34801561013a57600080fd5b506002546101489060ff1681565b60405190151581526020016100cd565b6100ad6101fd565b34801561016c57600080fd5b506100ad6102a8565b34801561018157600080fd5b506100c3670de0b6b3a764000081565b34801561019d57600080fd5b506100ad6103ee565b3480156101b257600080fd5b5060025461014890610100900460ff1681565b3480156101d157600080fd5b506000546101e5906001600160a01b031681565b6040516001600160a01b0390911681526020016100cd565b60025460ff16156102295760405162461bcd60e51b81526004016102209061050d565b60405180910390fd5b3360009081526001602052604081208054349290610248908490610566565b909155505060405134815233907febedb8b3c678666e7f36970bc8f57abf6d8fa2e828c0da91ea5b75bf68ed101a9060200160405180910390a2565b600060035442106102955750600090565b426003546102a3919061057f565b905090565b600254610100900460ff166102f65760405162461bcd60e51b81526020600482015260146024820152732bb4ba34323930bb9034b9903737ba1037b832b760611b6044820152606401610220565b336000908152600160205260409020548061034c5760405162461bcd60e51b81526020600482015260166024820152754e6f2062616c616e636520746f20776974686472617760501b6044820152606401610220565b336000818152600160205260408082208290555190919083908381818185875af1925050503d806000811461039d576040519150601f19603f3d011682016040523d82523d6000602084013e6103a2565b606091505b50509050806103ea5760405162461bcd60e51b81526020600482015260146024820152732330b4b632b2103a379039b2b7321022ba3432b960611b6044820152606401610220565b5050565b600080546001600160a01b0316815260016020526040902054156104245760405162461bcd60e51b81526004016102209061050d565b6003544211801561043d5750670de0b6b3a76400004710155b156104ae576002805460ff19166001179055600080546040805163522e117760e01b815290516001600160a01b039092169263522e1177924792600480820193929182900301818588803b15801561049457600080fd5b505af11580156104a8573d6000803e3d6000fd5b50505050505b600354421180156104c65750670de0b6b3a764000047105b156104db576002805461ff0019166101001790555b565b6000602082840312156104ef57600080fd5b81356001600160a01b038116811461050657600080fd5b9392505050565b60208082526023908201527f436f6e74726163742068617320616c7265616479206265656e20636f6d706c656040820152621d195960ea1b606082015260800190565b634e487b7160e01b600052601160045260246000fd5b8082018082111561057957610579610550565b92915050565b818103818111156105795761057961055056fea264697066735822122000e94c20961bdffb59baf69599dbfb7873beedd0da1acf595e8ac374c3215e8e64736f6c63430008140033",
  "devdoc": {
    "kind": "dev",
    "methods": {},
    "version": 1
  },
  "userdoc": {
    "kind": "user",
    "methods": {},
    "version": 1
  },
  "storageLayout": {
    "storage": [
      {
        "astId": 27,
        "contract": "contracts/Staker.sol:Staker",
        "label": "exampleExternalContract",
        "offset": 0,
        "slot": "0",
        "type": "t_contract(ExampleExternalContract)20"
      },
      {
        "astId": 37,
        "contract": "contracts/Staker.sol:Staker",
        "label": "balances",
        "offset": 0,
        "slot": "1",
        "type": "t_mapping(t_address,t_uint256)"
      },
      {
        "astId": 42,
        "contract": "contracts/Staker.sol:Staker",
        "label": "executed",
        "offset": 0,
        "slot": "2",
        "type": "t_bool"
      },
      {
        "astId": 44,
        "contract": "contracts/Staker.sol:Staker",
        "label": "openForWithdraw",
        "offset": 1,
        "slot": "2",
        "type": "t_bool"
      },
      {
        "astId": 50,
        "contract": "contracts/Staker.sol:Staker",
        "label": "deadline",
        "offset": 0,
        "slot": "3",
        "type": "t_uint256"
      }
    ],
    "types": {
      "t_address": {
        "encoding": "inplace",
        "label": "address",
        "numberOfBytes": "20"
      },
      "t_bool": {
        "encoding": "inplace",
        "label": "bool",
        "numberOfBytes": "1"
      },
      "t_contract(ExampleExternalContract)20": {
        "encoding": "inplace",
        "label": "contract ExampleExternalContract",
        "numberOfBytes": "20"
      },
      "t_mapping(t_address,t_uint256)": {
        "encoding": "mapping",
        "key": "t_address",
        "label": "mapping(address => uint256)",
        "numberOfBytes": "32",
        "value": "t_uint256"
      },
      "t_uint256": {
        "encoding": "inplace",
        "label": "uint256",
        "numberOfBytes": "32"
      }
    }
  }
}